:04000000F9EF05F01F
:1000080000C015F0F2A408D00001B72BB7514C0A74
:0E00180002E1C32BB76BF29415C000F011008B
:10002600240E0C6EB50E0D6E0D2EFED70C2EFCD7C3
:06003600000000001200B2
:0A003C00530E0D6E0D2EFED71200BC
:0C0046000000000000000000000012009C
:10005200086A096A100E0C6E01340836093604501B
:10006200085E0550D8A0053C095ED8B007D0045000
:1000720008260550D8B0053C0926D890003601362E
:060082000C2EEAD712006B
:100088000001DABF02D0819E01D0818EDABD02D094
:10009800819C01D0818CDABB02D0819A01D0818AFF
:1000A800DAB902D0819801D08188B3B102D08482B4
:1000B80001D084928480C3DF8490DAB702D0819E15
:1000C80001D0818EDAB502D0819C01D0818CDAB35F
:1000D80002D0819A01D0818ADAB102D0819801D008
:1000E8008188B3B102D0848201D084928480A7DF52
:0E00F8008490B3A102D093DF01D09CDF1200F0
:0C010600240E0D6E0D2EFED7000012001E
:100112000134083609360450085E0550D8A0053C63
:10012200095E003601360F0E0C6E013408360936B0
:10013200045000A006D0085E0550D8A0053C095E18
:1001420005D008260550D8B0053C092600360136F0
:100152000C2EEBD700B006D0045008260550D8B0BC
:08016200053C09260000120013
:10016A0010D0800E0001D36F1AD0C00ED36F17D0F3
:10017A00940ED36F14D0D40ED36F11D0800ED36FD8
:10018A000ED00001D351010AECE0D351020AEDE08E
:10019A00D351030AEDE0D351040AEDE0EFD7D405B9
:1001AA00006ED351002600C0D3F0B38100C0DAF04C
:0E01BA0066DFB391D5C0DAF062DFB3811200C8
:0E01C8000001B391D3C0DAF05BDFB381120007
:1001D6000001D76B050ED75D0AE2D751D525E16E32
:1001E600000ED621E26E200EE66ED72BF3D7D7513E
:1001F600D525E16E000ED621E26EE66AD707D75105
:10020600D525D86F000ED621D96F0A0E046E000EC2
:10021600056ED3C000F0D4C001F018DF08C000F0AE
:1002260009C001F0300E0026D8C0E1FFD9C0E2FFB8
:1002360000C0E6FF0A0E046E000E056ED3C000F085
:10024600D4C001F003DF00C0D3F001C0D4F0000E2B
:10025600011802E1000E001801E102D0D707CFD73E
:02026600120084
:100268000450000A08E10550000A05E1FF0E006E7F
:100278007F0E016E57D00D6A096A086A0150001096
:10028800D8B4000C015005180A6E0ABE0D1E0B6A80
:1002980005AE05D0041E051E042AD8B4052A01AEF1
:1002A80005D0001E011E002AD8B4012A01500510ED
:1002B8000A6E0ABE10D029DF0BB020D00DAE000C9C
:1002C800001E011E002AD8B4012A081E091E082A89
:1002D800D8B4092A000C05AE0DD001BE07D00150D4
:1002E800096E0050086E016A006AE8D7016A006A60
:1002F800002A000C011E001E0B2ADDD7082AD8B4DC
:10030800092A0450085CD8A4D9D70550095CD8A498
:10031800D5D7096A086A002AD8B4012A01AECED70F
:060328000000FF0C1200B2
:10032E00C26A070EC012C08EC9C000F0003600901F
:10033E00003600900050C212C280DEDEC282C2A21F
:10034E0001D0FDD7C4CF01F0006AC3500012000ED9
:06035E000112C290120022
:100364000B6A0A6A096A00500402F4CF09F0F3CF59
:1003740008F001500502F4CF0BF0F3CF0AF000505F
:100384000502F3500926F4500A22E86A0B220150B0
:100394000402F3500926F4500A22E86A0B2208C02A
:1003A40000F009C001F00AC002F00BC003F0120013
:1003B4000001CF6BD06BC9C0D1F0CAC0D2F0800E9F
:1003C400CA19006E800E005C02E1000EC95D0BE2EA
:1003D400010ECF6F000ED06FC9510008D16FCAC093
:1003E400D2F0000ED257D1C0D3F0D2C0D4F0CBC0DB
:1003F400D5F0CCC0D6F0EDDE060ECD6F000ECE6F7C
:10040400000E006ECE51005C02E1CD51000819E2ED
:10041400CD51CB25E16ECE51CC21E26E010ECD5DE6
:10042400006E000ECE59016E0050CB25E96E0150CE
:10043400CC21EA6EEECFE6FF010ECD5F000ECE5B5F
:10044400DFD7CBC0E1FFCCC0E2FF200EE66ECF5178
:10045400D0111AE0CD6BCE6BCD51CB25E96ECE51C8
:10046400CC21EA6EEE50200A03E1CD4BCE2BF4D71B
:10047400010ECD5F000ECE5BCD51CB25E16ECE518A
:0A048400CC21E26E2D0EE66E120090
:10048E0010D0800E0001C96F1AD0C00EC96F17D0E0
:10049E00940EC96F14D0D40EC96F11D0800EC96FCF
:1004AE000ED00001C951010AECE0C951020AEDE07B
:1004BE00C951030AEDE0C951040AEDE0EFD7CA05B0
:1004CE00006EC951002600C0C9F000C0DAF0D5DDBB
:1004DE00B391CD6BCD51CB25E96E000ECC21EA6EDA
:1004EE00EE520BE0CD51CB25E96E000ECC21EA6E1B
:0E04FE00EECFD3F062DECD2BEDD7B38112002E
:10050C00400E0001DA6FBADDCB6BCB51070811E35B
:10051C00FB0ECB25F66E0F0EF76E000EF722000EBB
:10052C00F86E000EF8220900F5CFD3F047DECB2B86
:10053C00ECD7020EDA6FA2DDC9C0D3F0CAC0D4F07A
:06054C00D56B0DDE12006C
:100552000001CB6BCC6BC9C003F0CAC004F0C9C0A8
:1005620005F0CAC006F003C0E9FF04C0EAFFEE507E
:10057200200A04E1CB51CC1101E110D0010ECB6F66
:10058200000ECC6F03C0E9FF04C0EAFF05C0E1FF23
:1005920006C0E2FFEECFE6FF054A062A03C001F0DD
:1005A20004C002F0034A042A01C0E9FF02C0EAFFC4
:1005B200EE50000AD8E1C9C000F0CAC001F0120032
:1005C200FF0E0001AF6FFF0EB06FFF0EB16FFF0E97
:0E05D200B26FC26A070EC012C08EC280120045
:1005E0000900F5CFE6FF0006FBE10106F9E1120084
:1005F000020E0001C96F0B0ECA6F750ECB6F000E95
:10060000CC6F45DF020EC96F0E0ECA6F790ECB6F2D
:10061000000ECC6F3CDF010EC96F0F0ECA6F76DF84
:10062000010EC96F100ECA6F7D0ECB6F000ECC6F1E
:100630002EDF010EC96F030ECA6F7F0ECB6F000E47
:10064000CC6F25DF010EC96F070ECA6F7B0ECB6F13
:08065000000ECC6F1CDF12004C
:10065800969096929398939A939C939E8490849262
:10066800819E819C819A8198DADCD9DCD8DC818AE8
:1006780081888480E4DC8490D2DC8480E0DC84900F
:10068800CEDC8480DCDC8490CADC81988480D7DC72
:100698008490C5DC8480D3DC8490819A818E8480A8
:1006A800CEDC8490BCDC819E81888480C8DC849008
:1006B80081988480C4DC8490B2DC8480C0DC84901F
:1006C80081888480BCDC8490AADC81988480B7DC33
:1006D8008490818E818C818A81888480B0DC84902A
:0806E8009EDC0001B381120049
:1006F000000E0001C81902E1010EC71909E1010E3F
:10070000C96F040ECA6F3D0ECB6F000ECC6FBFDEFB
:10071000000EC81902E1020EC71909E1010EC96FE6
:10072000040ECA6F4D0ECB6F000ECC6FB0DE000E04
:10073000C81902E1030EC71909E1010EC96F040EC1
:10074000CA6F510ECB6F000ECC6FA1DE000EC81920
:1007500002E1040EC71909E1010EC96F040ECA6F48
:10076000490ECB6F000ECC6F92DE000EC81902E16D
:10077000050EC71909E1010EC96F040ECA6F410EBB
:10078000CB6F000ECC6F83DE000EC81902E1060E9F
:10079000C71909E1010EC96F040ECA6F450ECB6F70
:1007A000000ECC6F74DE000EC81902E1070EC719E7
:1007B00009E1010EC96F040ECA6F8D0ECB6F000EDA
:1007C000CC6F65DE000EC81902E1080EC71909E1F9
:1007D000010EC96F040ECA6F910ECB6F000ECC6F65
:1007E00056DE000EC81902E1090EC71909E1010E13
:1007F000C96F040ECA6F890ECB6F000ECC6F47DE37
:10080000000EC81902E10A0EC71909E1010EC96FED
:10081000040ECA6F810ECB6F000ECC6F38DE000E57
:10082000C81902E10B0EC71909E1010EC96F040EC8
:10083000CA6F850ECB6F000ECC6F29DE000EC81973
:1008400002E10C0EC71909E1010EC96F040ECA6F4F
:0C085000950ECB6F000ECC6F1ADE12006C
:10085C000001AA51010A09E1020EC96F010ECA6F0B
:10086C00550ECB6F000ECC6F0CDEAA51020A09E1BB
:10087C00020EC96F010ECA6F5D0ECB6F000ECC6FEE
:10088C0000DEAA51030A09E1020EC96F010ECA6FFC
:10089C002D0ECB6F000ECC6FF4DDAA51040A09E1CA
:1008AC00020EC96F010ECA6F350ECB6F000ECC6FE6
:1008BC00E8DDAA51050A09E1020EC96F010ECA6FE3
:1008CC00250ECB6F000ECC6FDCDDAA51060A09E1B8
:1008DC00020EC96F010ECA6F160ECB6F000ECC6FD5
:1008EC00D0DDAA51070A09E1020EC96F010ECA6FC9
:0C08FC001E0ECB6F000ECC6FC4DD12008E
:10090800020E0001C96F0B0ECA6F650ECB6F000E89
:10091800CC6FB9DD020EC96F0E0ECA6F670ECB6FB2
:08092800000ECC6FB0DD1200DF
:10093000010E0001C96FFBDC00C0A4F001C0A5F0EE
:1009400000500001A6270150A723A32BA351140A8E
:100950003CE1A3C004F0000E056EA6C000F0A7C0E5
:1009600001F082DC00C09FF001C0A0F00001A36B89
:10097000A66BA76B050E046E000E056EF3DC640E0D
:10098000046E000E056EEEDCFF0E046E030E056EA7
:100990006BDC00C09FF001C0A0F000C0C9F001C036
:1009A000CAF0BC0E0001CB6F000ECC6F03DDBC0E95
:1009B000C96F000ECA6FCDDD00C0CBF001C0CCF016
:0C09C000010EC96F0D0ECA6F62DD12003F
:1009CC000A0E0001C35D0CE2020EC96F0F0ECA6F56
:1009DC00990ECB6F000ECC6F54DD100EBB6F02D096
:1009EC000F0EBB6FC3C0C9F0000ECA6FBC0ECB6F2D
:1009FC00000ECC6FD9DCBC0EC96F000ECA6FA3DD24
:100A0C0000C0CBF001C0CCF0020EC96FBBC0CAF065
:100A1C0038DD0A0EC45D0CE2020EC96F0C0ECA6FF3
:100A2C009D0ECB6F000ECC6F2CDD0D0EC66F02D061
:100A3C000C0EC66FC4C0C9F0000ECA6FBC0ECB6FD3
:100A4C00000ECC6FB1DCBC0EC96F000ECA6F7BDD23
:100A5C0000C0CBF001C0CCF0020EC96FC6C0CAF00A
:100A6C0010DD0A0EC55D0CE2020EC96F090ECA6FCD
:100A7C009B0ECB6F000ECC6F04DD0A0EBA6F02D04A
:100A8C00090EBA6FC5C0C9F0000ECA6FBC0ECB6F91
:100A9C00000ECC6F89DCBC0EC96F000ECA6F53DD23
:100AAC0000C0CBF001C0CCF0020EC96FBAC0CAF0C6
:040ABC00E8DC120060
:100AC000000E0001C81902E1010EC71904E1200E51
:100AD000A16F000EA26F000EC81902E1020EC71925
:100AE0001FE1040E046E000E056EA8C000F0A9C040
:100AF00001F034EC01F008C000F009C001F0000E74
:100B0000011802E1000E001806E11E0E0001A16F9F
:100B1000000EA26F05D000011D0EA16F000EA26F86
:100B2000000EC81902E1030EC71904E1200EA16FDF
:100B3000000EA26F000EC81902E1040EC71904E1ED
:100B40001F0EA16F000EA26F000EC81902E1050E64
:100B5000C71904E1200EA16F000EA26F000EC81984
:100B600002E1060EC71904E11F0EA16F000EA26F6D
:100B7000000EC81902E1070EC71904E1200EA16F8B
:100B8000000EA26F000EC81902E1080EC71904E199
:100B9000200EA16F000EA26F000EC81902E1090E0F
:100BA000C71904E11F0EA16F000EA26F000EC81935
:100BB00002E10A0EC71904E1200EA16F000EA26F18
:100BC000000EC81902E10B0EC71904E11F0EA16F38
:100BD000000EA26F000EC81902E10C0EC71904E145
:100BE000200EA16F000EA26FA1C000F0A2C001F004
:020BF0001200F1
:100BF20002EC08F00D0EC16EF16AF26AD56AD58E6A
:100C0200D586F28AF28EDCDC310E926E0F0E936E76
:100C1200946A956A806A816A826A836A1CDD010E1F
:100C2200DA6F44EC00F00C0EDA6F44EC00F0C36BA8
:100C32001E0EC46F130EC56F030EB86F010EAA6F9E
:100C4200050EB96FE10EA86F070EA96FB76BA36B04
:100C5200A66BA76BA46BA56B0F0EBB6F0C0EC66FBA
:100C6200090EBA6F010EB46F9F6BA06BB56BB66BBA
:100C7200AB6BAC6BBCDCAD6BAE6B800E006E800EF2
:100C8200AE19005C02E1AD51140804E350DEAD4B35
:100C9200AE2BF3D74CDE99DEB9C0C7F0000EC86F99
:100CA2000EDF00C0A1F001C0A2F0C3513C0A02E174
:100CB200C42BC36BC4513C0A02E1C46BC52BC551A2
:100CC200180A03E1C56BB82BAA2B000EA21902E188
:100CD200A151B81903E1010EB86FB92BAA51080A44
:100CE20002E1010EAA6FB9510D0A04E1010EB96FBA
:100CF200A84BA92B0A0EB85D0DE2010EC96F010EB9
:100D0200CA6F770ECB6F000ECC6F47EC02F0020E6B
:100D1200B46F02D0010EB46FB8C0C9F0000ECA6F32
:100D2200BC0ECB6F000ECC6FDAEC01F0BC0EC96FBB
:100D3200000ECA6F0DDC00C0CBF001C0CCF0010E7A
:100D4200C96FB4C0CAF047EC02F0B9C0C7F0000ED8
:100D5200C86FCDDCA8C0C9F0A9C0CAF0BC0ECB6F69
:100D6200000ECC6FDAEC01F0BC0EC96F000ECA6F38
:100D7200A9EC02F000C0CBF001C0CCF0010EC96FAB
:100D8200080ECA6F47EC02F068DD81B61CD081B64E
:100D92000FD0030E0B6E8A0E0C6E550E0D6E0D2EBD
:100DA200FED70C2EFCD70B2EFAD700000000EFD78F
:100DB200AA2BB82B000EA21902E1A151B81903E126
:100DC200010EB86FB92B80A83DD080A80FD0030EBA
:100DD2000B6E8A0E0C6E550E0D6E0D2EFED70C2E5E
:100DE200FCD70B2EFAD700000000EFD7AD6BAE6B2D
:100DF200010EA15D016E000EA259026E800EAE19A7
:100E0200006E800E0218005C02E10150AD5D1AE234
:100E1200B82BAA2B000EA21902E1A151B81903E1C5
:100E2200B92B010EB86FAA51080A02E1010EAA6F8E
:100E3200B9510D0A04E1010EB96FA84BA92BAD4BB4
:100E4200AE2BD6D780AA2FD080AA0FD0030E0B6E5E
:100E52008A0E0C6E550E0D6E0D2EFED70C2EFCD783
:100E62000B2EFAD700000000EFD7040E046E000E1E
:100E7200056EA8C000F0A9C001F034EC01F008C072
:100E820000F009C001F0000E011802E1000E001886
:100E920005E00001A84BA92BAA2B05D00001A84B05
:100EA200A92B020EAA2781B218D081B20FD0030E4D
:100EB2000B6E8A0E0C6E550E0D6E0D2EFED70C2E7D
:100EC200FCD70B2EFAD700000000EFD7C52BC55177
:100ED200180A03E1C56BB82BAA2B81B417D081B4D1
:100EE2000FD0030E0B6E8A0E0C6E550E0D6E0D2E6C
:100EF200FED70C2EFCD70B2EFAD700000000EFD73E
:100F0200C42BC4513C0A02E1C46BC52B81B02ED064
:100F1200010EDA6F44EC00F0010EC96F010ECA6FC8
:100F2200690ECB6F000ECC6F47EC02F0270E0B6EF2
:100F32000D0E0C6E260E0D6E0D2EFED70C2EFCD74E
:100F42000B2EFAD70000010EDA6F44EC00F03DDD03
:100F5200DADC270E0B6E0D0E0C6E260E0D6E0D2EAC
:100F6200FED70C2EFCD70B2EFAD7000093D6FFD754
:1010040010EE16F0890E006E010E016E720EF66E71
:0E1014000F0EF76E000EF86EF0EC02F01200F8
:080F72005345585441202000B2
:070F7A0053414241444F00C6
:080F81005155494E5441200076
:080F89005445524341202000B1
:080F910051554152544120006A
:040F99004A414E007B
:040F9D004D41490079
:040FA1004A554E005F
:040FA5004142520073
:040FA9004645560063
:040FAD004D41520060
:080FB100444F4D494E474F002B
:080FB900534547554E44410029
:020FC1003A00F4
:020FC3003A00F2
:0C0FC5004D6F646F20416C61726D65001F
:020FD1003A00E4
:020FD3003000EC
:020FD5003A00E0
:020FD7002F00E9
:020FD9004300D3
:020FDB002F00E5
:040FDD004F55540018
:040FE1004E4F560019
:040FE500534554001C
:040FE9004A554C0019
:040FED0041474F0029
:040FF10044455A0019
:020FF5003000CA
:020FF7003000C8
:020FF9003000C6
:080FFB000007050700000000DB
:020000040030CA
:0D000100021F1EFF8181FF0FC00FE00F40A6
:00000001FF
